:020000040800F2
:100000000000022091260008BD120008BF1200085F
:10001000C1120008C3120008C51200080000000049
:10002000000000000000000000000000C7120008EF
:10003000C912000800000000CB120008CD12000811
:10004000E1260008E1260008E1260008E126000874
:10005000E1260008E1260008E1260008E126000864
:10006000E1260008E1260008E1260008E126000854
:10007000E1260008E1260008E1260008E126000844
:10008000E1260008E1260008E12600080000000043
:10009000000000000000000000000000E126000851
:1000A000E1260008E1260008E1260008E126000814
:1000B000D5120008E1260008E1260008E126000824
:1000C000E1260008E1260008E1260008E1260008F4
:1000D000E1260008E1260008E126000800000000F3
:1000E000E1260008E1260008E126000800000000E3
:1000F000000000000000000000000000E1260008F1
:1001000000000000E1260008E1260008E1260008C2
:1001100000000000000000000000000000000000DF
:10012000E1260008E1260008E1260008E126000893
:10013000E1260008000000000000000000000000B0
:10014000000000000000000000000000E1260008A0
:10015000E1260008E1260008E1260008E126000863
:10016000E1260008E1260008000000000000000071
:10017000000000000000000000000000000000007F
:1001800000000000E1260008000000000000000060
:08019000E1260008E126000849
:1001980010B5054C237833B9044B13B10448AFF3B9
:1001A80000800123237010BD14000020000000000F
:1001B8003C27000808B5034B1BB103490348AFF3BC
:1001C800008008BD00000000180000203C2700083F
:1001D80081F0004102E000BF83F0004330B54FEAF0
:1001E80041044FEA430594EA050F08BF90EA020F5D
:1001F8001FBF54EA000C55EA020C7FEA645C7FEAF0
:10020800655C00F0E2804FEA5454D4EB5555B8BF12
:100218006D420CDD2C4480EA020281EA030382EA83
:10022800000083EA010180EA020281EA0303362D15
:1002380088BF30BD11F0004F4FEA01314FF4801CE8
:100248004CEA113102D0404261EB410113F0004FFA
:100258004FEA03334CEA133302D0524263EB4303B1
:1002680094EA050F00F0A780A4F10104D5F1200E4F
:100278000DDB02FA0EFC22FA05F2801841F10001AA
:1002880003FA0EF2801843FA05F359410EE0A5F17E
:1002980020050EF1200E012A03FA0EFC28BF4CF0AF
:1002A800020C43FA05F3C01851EBE37101F0004565
:1002B80007D54FF0000EDCF1000C7EEB00006EEB72
:1002C8000101B1F5801F1BD3B1F5001F0CD34908FC
:1002D8005FEA30004FEA3C0C04F101044FEA445253
:1002E80012F5800F80F09A80BCF1004F08BF5FEADA
:1002F800500C50F1000041EB045141EA050130BDBA
:100308005FEA4C0C404141EB010111F4801FA4F15C
:100318000104E9D191F0000F04BF01460020B1FAB1
:1003280081F308BF2033A3F10B03B3F120020CDAE9
:100338000C3208DD02F1140CC2F10C0201FA0CF0C7
:1003480021FA02F10CE002F11402D8BFC2F1200C2C
:1003580001FA02F120FA0CFCDCBF41EA0C019040E2
:10036800E41AA2BF01EB0451294330BD6FEA04042B
:100378001F3C1CDA0C340EDC04F11404C4F1200216
:1003880020FA04F001FA02F340EA030021FA04F328
:1003980045EA030130BDC4F10C04C4F1200220FA7F
:1003A80002F001FA04F340EA0300294630BD21FABD
:1003B80004F0294630BD94F0000F83F4801306BF83
:1003C80081F480110134013D4EE77FEA645C18BF77
:1003D8007FEA655C29D094EA050F08BF90EA020F0E
:1003E80005D054EA000C04BF1946104630BD91EA06
:1003F800030F1EBF0021002030BD5FEA545C05D109
:100408004000494128BF41F0004130BD14F5800447
:100418003CBF01F5801130BD01F0004545F0FE41BB
:1004280041F470014FF0000030BD7FEA645C1ABFF0
:10043800194610467FEA655C1CBF0B46024650EA27
:10044800013406BF52EA033591EA030F41F4002153
:1004580030BD00BF90F0000F04BF0021704730B5D9
:100468004FF4806404F132044FF000054FF00001AE
:1004780050E700BF90F0000F04BF0021704730B56F
:100488004FF4806404F1320410F0004548BF404244
:100498004FF000013EE700BF42004FEAE2014FEA99
:1004A80031014FEA02701FBF12F07F4393F07F4F74
:1004B80081F06051704732F07F4208BF704793F077
:1004C8007F4F04BF41F40021704730B54FF460748A
:1004D80001F0004521F000411CE700BF50EA01028D
:1004E80008BF704730B54FF000050AE050EA010236
:1004F80008BF704730B511F0004502D5404261EBA6
:1005080041014FF4806404F132045FEA915C3FF4E6
:10051800D8AE4FF003025FEADC0C18BF03325FEA83
:10052800DC0C18BF033202EBDC02C2F1200300FA34
:1005380003FC20FA02F001FA03FE40EA0E0021FA59
:1005480002F11444BDE600BF70B54FF0FF0C4CF447
:10055800E06C1CEA11541DBF1CEA135594EA0C0FF9
:1005680095EA0C0F00F0DEF82C4481EA030621EA34
:100578004C5123EA4C5350EA013518BF52EA03356F
:1005880041F4801143F4801338D0A0FB02CE4FF021
:100598000005E1FB02E506F00042E0FB03E54FF051
:1005A8000006E1FB03569CF0000F18BF4EF0010E49
:1005B800A4F1FF04B6F5007F64F5407404D25FEA45
:1005C8004E0E6D4146EB060642EAC62141EA5551F8
:1005D8004FEAC52040EA5E504FEACE2EB4F1FD0C3A
:1005E80088BFBCF5E06F1ED8BEF1004F08BF5FEAB8
:1005F800500E50F1000041EB045170BD06F000466A
:1006080046EA010140EA020081EA0301B4EB5C0416
:10061800C2BFD4EB0C0541EA045170BD41F480110E
:100628004FF0000E013C00F3AB8014F1360FDEBF33
:10063800002001F0004170BDC4F10004203C35DA0F
:100648000C341BDC04F11404C4F1200500FA05F392
:1006580020FA04F001FA05F240EA020001F0004233
:1006680021F0004110EBD37021FA04F642EB0601A9
:100678005EEA430E08BF20EAD37070BDC4F10C04D3
:10068800C4F1200500FA04F320FA05F001FA04F297
:1006980040EA020001F0004110EBD37041F1000183
:1006A8005EEA430E08BF20EAD37070BDC4F120058E
:1006B80000FA05F24EEA020E20FA04F301FA05F2F6
:1006C80043EA020321FA04F001F0004121FA04F29E
:1006D80020EA020000EBD3705EEA430E08BF20EA6E
:1006E800D37070BD94F0000F0FD101F000464000A8
:1006F80041EB010111F4801F08BF013CF7D041EA2A
:10070800060195F0000F18BF704703F0004652002D
:1007180043EB030313F4801F08BF013DF7D043EAFE
:100728000603704794EA0C0F0CEA135518BF95EAB4
:100738000C0F0CD050EA410618BF52EA4306D1D13B
:1007480081EA030101F000414FF0000070BD50EA5A
:10075800410606BF1046194652EA430619D094EAE4
:100768000C0F02D150EA013613D195EA0C0F05D1CE
:1007780052EA03361CBF104619460AD181EA030122
:1007880001F0004141F0FE4141F470014FF00000DA
:1007980070BD41F0FE4141F4780170BD70B54FF075
:1007A800FF0C4CF4E06C1CEA11541DBF1CEA1355F5
:1007B80094EA0C0F95EA0C0F00F0A7F8A4EB0504D7
:1007C80081EA030E52EA03354FEA013100F08880CE
:1007D8004FEA03334FF0805545EA131343EA126397
:1007E8004FEA022245EA111545EA10654FEA00264C
:1007F8000EF000419D4208BF964244F1FD0404F505
:10080800407402D25B084FEA3202B61A65EB030560
:100818005B084FEA32024FF480104FF4002CB6EB1D
:10082800020E75EB030E22BFB61A754640EA0C009D
:100838005B084FEA3202B6EB020E75EB030E22BFDD
:10084800B61A754640EA5C005B084FEA3202B6EB1E
:10085800020E75EB030E22BFB61A754640EA9C00DD
:100868005B084FEA3202B6EB020E75EB030E22BFAD
:10087800B61A754640EADC0055EA060E18D04FEA6B
:10088800051545EA16754FEA06164FEAC30343EA0B
:1008980052734FEAC2025FEA1C1CC0D111F4801FD8
:1008A8000BD141EA00014FF000004FF0004CB6E7D1
:1008B80011F4801F04BF01430020B4F1FD0C88BF70
:1008C800BCF5E06F3FF6AFAEB5EB030C04BFB6EB7B
:1008D800020C5FEA500C50F1000041EB045170BD6E
:1008E8000EF0004E4EEA113114EB5C04C2BFD4EB9B
:1008F8000C0541EA045170BD41F480114FF0000E1F
:10090800013C90E645EA060E8DE60CEA135594EA9A
:100918000C0F08BF95EA0C0F3FF43BAF94EA0C0F9D
:100928000AD150EA01347FF434AF95EA0C0F7FF412
:1009380025AF104619462CE795EA0C0F06D152EA66
:1009480003353FF4FDAE1046194622E750EA41064A
:1009580018BF52EA43067FF4C5AE50EA41047FF45B
:100968000DAF52EA43057FF4EBAE12E74FEA4102BE
:10097800B2F1E04324BFB3F5001CDCF1FE5C0DD9F5
:1009880001F0004C4FEAC0024CEA5070B2F1004F3F
:1009980040EB830008BF20F00100704711F0804F42
:1009A80021D113F13872BCBF01F00040704741F407
:1009B80080114FEA5252C2F11802C2F1200C10FA0B
:1009C8000CF320FA02F018BF40F001004FEAC123EF
:1009D8004FEAD32303FA0CFC40EA0C0023FA02F393
:1009E8004FEA4303CCE77FEA625307D150EA013369
:1009F8001EBF4FF0FE4040F44000704701F0004039
:100A080040F0FE4040F40000704700BF53B94AB9B7
:100A1800002908BF00281CBF4FF0FF314FF0FF30FE
:100A280000F072B9ADF1080C6DE904CE00F006F8DB
:100A3800DDF804E0DDE9022304B070472DE9F04752
:100A4800089E04468846002B4BD18A42154667D932
:100A5800B2FA82F24AB1C2F1200701FA02F320FA8F
:100A680007F7954047EA030894404FEA154E230CD0
:100A7800B8FBFEF71FFA85FC0EFB178843EA08430C
:100A880007FB0CF1994209D9EB1807F1FF3080F008
:100A98001B81994240F21881023F2B445B1AA4B291
:100AA800B3FBFEF00EFB103344EA034400FB0CFCDE
:100AB800A44509D92C1900F1FF3380F00781A4451A
:100AC80040F2048102382C4440EA0740A4EB0C04AD
:100AD80000271EB1D4400023C6E900433946BDE8CB
:100AE800F0878B4209D9002E00F0EB800027C6E979
:100AF800000138463946BDE8F087B3FA83F7002F7E
:100B080047D18B4202D3824200F2FA80841A61EB09
:100B1800030301209846002EE0D0C6E90048DDE72F
:100B280002B9FFDEB2FA82F2002A40F08F80491B38
:100B38004FEA154E1FFA85F80127B1FBFEFC230C7E
:100B48000EFB1C1143EA014308FB0CF1994207D93B
:100B5800EB180CF1FF3002D2994200F2CD808446A6
:100B6800591AA3B2B1FBFEF00EFB101443EA044479
:100B780008FB00F8A04507D92C1900F1FF3302D271
:100B8800A04500F2B6801846A4EB080440EA0C40E1
:100B98009FE7C7F1200CBB4022FA0CFE4EEA030E79
:100BA80001FA07F420FA0CF521FA0CF34FEA1E4873
:100BB8002543B3FBF8F92C0C08FB19331FFA8EFAFE
:100BC80044EA034309FB0AF49C4202FA07F200FADA
:100BD80007F10BD91EEB030309F1FF3080F0878082
:100BE8009C4240F28480A9F1020973441B1BADB2F8
:100BF800B3FBF8F008FB103345EA034400FB0AFA9C
:100C0800A24508D91EEB040400F1FF336BD2A245BC
:100C180069D90238744440EA0940A0FB0289A4EB70
:100C28000A044C45C2464B4654D351D0002E69D0D5
:100C3800B1EB0A0564EB030404FA0CFCFD40FC402C
:100C48004CEA0505C6E90054002747E7C2F120032E
:100C580020FA03F7954001FA02F021FA03F34FEA6C
:100C6800154E3843010CB3FBFEF71FFA85F80EFB4F
:100C7800173341EA034107FB08F38B4204FA02F4F5
:100C880007D9691807F1FF3C2FD28B422DD9023FB3
:100C98002944CB1A81B2B3FBFEF00EFB103341EAB4
:100CA800034100FB08F38B4207D9691800F1FF3CA8
:100CB80017D28B4215D902382944C91A40EA074786
:100CC8003BE73746304609E70746E7E61846FBE6BE
:100CD8004145ABD2B8EB020A69EB0E020138134664
:100CE800A4E76046E9E7184695E76746D1E78146F5
:100CF8007CE702382C4447E7ACF1020C2B442FE781
:100D0800384608E73746E9E6704700BF30B589B08E
:100D18000024039404940594069407940094194BB2
:100D28001A6B42F004021A631A6B02F00402009272
:100D3800009A01941A6B42F080021A631A6B02F04F
:100D480080020192019A02941A6B42F001021A631E
:100D58001B6B03F001030293029B0B4D22464FF4D9
:100D6800C061284600F05AFC4FF4C0630393012386
:100D780004930594069403A9284600F077FB09B06C
:100D880030BD00BF003802400000024072B6FEE7E6
:100D980010B592B000241094119409940A940B94FD
:100DA8000C940D940E940F942022214601A801F072
:100DB800B9FC2048204B0360632343608460C36010
:100DC800046144618023836101F06BF9002829D113
:100DD80000231093119310A9164801F0EDFB18BBDE
:100DE8006023099300220A920B920C920D920E92A4
:100DF8000F9209A90F4801F009FAB8B90023019325
:100E080002930393049305934FF4005206920893B8
:100E180001A9084801F00CFC50B9064800F01AFA7C
:100E280012B010BDFFF7B2FFFFF7B0FFFFF7AEFF3C
:100E3800FFF7ACFF8C0000200000014000B58DB02A
:100E48002022002104A801F06DFC002301930293E5
:100E58001048114A0260436083604FF6FF72C26017
:100E6800036183610323039301230593099303A972
:100E780001F042F950B900230193029301A90548F2
:100E880001F09AFB20B90DB05DF804FBFFF77EFF77
:100E9800FFF77CFF440000200004004000B587B045
:100EA8000023029303930493059300930193154839
:100EB8004FF08042026063224260836040F2E73272
:100EC800C26003618023836101F0C0F898B906A964
:100ED8004FF4805341F8103D0A4801F00BFA60B90D
:100EE8000023009301936946064801F065FB30B979
:100EF80007B05DF804FBFFF749FFFFF747FFFFF76F
:100F080045FF00BFD400002000B595B03022002175
:100F180008A801F007FC00230393049305930693A4
:100F2800079301931E4A116C41F080511164126CB1
:100F380002F080520192019A02931A4A116841F410
:100F480040411160126802F440420292029A022261
:100F5800089201210B9110210C910E920F930823F6
:100F680010936423119312920423139308A800F09A
:100F78005BFB88B90F230393022304930023059393
:100F88004FF4805206920793032103A800F0AEFDA8
:100F980020B915B05DF804FBFFF7F8FEFFF7F6FE81
:100FA800003802400070004080B500F0C9F9FFF732
:100FB800ABFFFFF7ABFEFFF7EBFEFFF73FFFFFF7D7
:100FC8006DFF0421564801F08FFA0021554801F0C1
:100FD8000FFA554800F0EEFE544C01224FF4007110
:100FE800204600F01BFB01224FF48061204600F0F0
:100FF80015FB13E0F1EE677AFCEEE77A4C4B17EE3F
:10100800902A1A8200224FF40071484800F006FB2B
:1010180077E0444B1B68464A128A5A63404B1B6868
:101028005B6A1BB2424A138013881BB2B3F5C86FC0
:10103800F4DD13881BB2B3F5166FEFDA5388012B72
:10104800ECD1144600235380D2ED018AC2ED028A06
:1010580013881BB2C3F5FF63043307EE903AB8EE6A
:10106800E78A82ED018A334DD5ED007A68EE277A5A
:1010780017EE900AFFF710FA06460F4638EE688A10
:10108800D5ED017A68EE277A17EE900AFFF704FA91
:1010980021A3D3E90023FFF781FB02460B46304624
:1010A8003946FFF79BF8FFF761FC07EE900AE0600E
:1010B8009FED217AF4EEC77AF1EE10FA02DD2346AD
:1010C80083ED037A1A4B93ED037ADFED1C7AB4EEC5
:1010D800E77AF1EE10FA01D5C3ED037A144BD3ED9C
:1010E800037AF5EEC07AF1EE10FA83DDFCEEE77ACA
:1010F80017EE902A1A8201224FF400710B4800F073
:101108008DFA0B4B1B8A622B83D9094B62221A82F8
:101118007FE700BFAFF30080FCA9F1D24D62503FDA
:10112800440000208C000020D40000200000024071
:1011380030000020000000200000C4420000C4C2AB
:1011480082B0002100910B4B5A6C42F480425A64E1
:101158005A6C02F480420092009A01911A6C42F093
:1011680080521A641B6C03F080530193019B02B0F8
:10117800704700BF003802400268094B9A4200D00D
:10118800704782B000230193064B5A6C42F001026B
:101198005A645B6C03F001030193019B02B0704732
:1011A80000000140003802400368B3F1804F00D0CE
:1011B800704700B583B00021019103F50E331A6C16
:1011C80042F001021A641B6C03F001030193019BB6
:1011D8000A461C2000F0F2F81C2000F023F903B0A6
:1011E8005DF804FB00B589B00023039304930593CD
:1011F800069307930268154B9A4202D009B05DF82E
:1012080004FB0021019103F50D331A6C42F0020230
:101218001A641A6C02F002020192019A02911A6B86
:1012280042F004021A631B6B03F004030293029B4F
:10123800C0230393122304930123059302230793E6
:1012480003A9034800F012F9D8E700BF00040040E2
:101258000008024000B587B000230193029303936E
:10126800049305930268104B9A4202D007B05DF8C8
:1012780004FB002300930D4B1A6B42F001021A6322
:101288001B6B03F001030093009B4FF480730193E1
:1012980002230293032304930123059301A904481D
:1012A80000F0E4F8E2E700BF000001400038024027
:1012B80000000240FEE7FEE7FEE7FEE7FEE77047B4
:1012C8007047704708B500F055F808BD08B50348E1
:1012D80000F0B1FD024B01221A6008BDD4000020C5
:1012E80032000020034AD2F8883043F47003C2F871
:1012F8008830704700ED00E010B504460E4B1878B2
:101308004FF47A73B3FBF0F30C4A1068B0FBF3F0B8
:1013180000F096F868B90F2C01D901200AE00022E4
:1013280021464FF0FF3000F049F8034B5C60002085
:1013380000E0012010BD00BF0C00002008000020C4
:1013480008B50B4B1A6842F400721A601A6842F426
:1013580080621A601A6842F480721A60032000F0F2
:101368001BF80020FFF7C8FFFFF7EAFE002008BDC2
:10137800003C0240034A1168034B1B780B4413607E
:10138800704700BF1C0100200C000020014B1868AA
:10139800704700BF1C010020074AD36823F4E063AC
:1013A8001B041B0C000200F4E060184340F0BF600F
:1013B80040F40030D060704700ED00E030B4174BC7
:1013C800DB68C3F30223C3F10704042C28BF0424F9
:1013D8001D1D062D18D9033B4FF0FF3505FA04F4FF
:1013E80021EA0401994005FA03F322EA03031943A9
:1013F80000280BDB0901C9B200F1604000F561402B
:1014080080F8001330BC70470023E5E700F00F00B8
:101418000901C9B2024B1954F4E700BF00ED00E01E
:1014280014ED00E0002807DB00F01F02400901234B
:101438009340024A42F82030704700BF00E100E0C4
:101448000138B0F1807F0AD2064B5860064AF02175
:1014580082F823100020986007221A607047012044
:10146800704700BF10E000E000ED00E000230F2B04
:1014780000F2CA80F0B482B05DE086685F000324A1
:10148800BC4026EA0406CC68BC4034438460466805
:1014980026EA02064C68C4F300129A4032434260BE
:1014A80056E0DC08083450F8247003F00702960070
:1014B8000F22B24027EA02070A69B2403A4340F8CD
:1014C800242059E0042200E00022B2403A430234CA
:1014D8004E4E46F824204E4A1468EA4302EA0406AF
:1014E8004F6817F4803F01D045EA0406484C26604F
:1014F800646802EA04064F6817F4003F01D045EA21
:101508000406434C6660A46802EA04064F6817F4B0
:10151800801F01D045EA04063D4CA660E4682240DD
:101528004E6816F4001F01D045EA0402384CE26008
:1015380001330F2B65D801229A400C6804EA020592
:10154800AA42F5D14C6804F00304013C012C94D95B
:101558004A6802F00302032A09D0C4685E00032225
:10156800B24024EA02048A68B2402243C2604A6850
:1015780002F00302022A94D004685E000322B240FB
:1015880024EA02044A6802F00302B24022430260DD
:101598004A6812F0805FCBD0002201921D4A546C39
:1015A80044F480445464526C02F480420192019ADB
:1015B8009C08A61C154A52F8267003F003029600F0
:1015C8000F22B24027EA0207134A90423FF47CAF49
:1015D80002F5806290420ED002F5806290420CD0F3
:1015E80002F5806290420AD002F5806290423FF490
:1015F80069AF072269E7012267E7022265E703224C
:1016080063E702B0F0BC7047704700BF0038014084
:10161800003C0140003802400000024012B90904B1
:101628008161704781617047002800F0E98170B5D9
:1016380082B00446036813F0010F3BD0A74B9B68A8
:1016480003F00C03042B2CD0A44B9B6803F00C0371
:10165800082B21D06368B3F5803F4FD0B3F5A02F96
:1016680052D09E4B1A6822F480321A601A6822F40B
:1016780080221A606368002B50D0FFF787FE05466A
:10168800964B1B6813F4003F14D1FFF77FFE401BF5
:101698006428F5D90320B8E1904B5B6813F4800FF8
:1016A800D8D08E4B1B6813F4003F03D06368002B1F
:1016B80000F0A881236813F0020F55D0874B9B6870
:1016C80013F00C0F3ED0854B9B6803F00C03082BDE
:1016D80033D0E368002B68D0814B01221A60FFF7F2
:1016E80055FE05467D4B1B6813F0020F54D1FFF7DA
:1016F8004DFE401B0228F5D9032086E1774A13687E
:1017080043F480331360B5E7744B1A6842F48022BF
:101718001A601A6842F480321A60ABE7FFF736FEA7
:1017280005466E4B1B6813F4003FC3D0FFF72EFE2F
:10173800401B6428F5D9032067E1684B5B6813F404
:10174800800FC6D1654B1B6813F0020F04D0E36805
:10175800012B01D0012058E1604A136823F0F803F7
:10176800216943EAC1031360236813F0080F40D0CE
:10177800636963B35B4B01221A60FFF707FE0546F6
:10178800564B5B6F13F0020F33D1FFF7FFFD401B81
:101798000228F5D9032038E1504A136823F0F803EA
:1017A800216943EAC1031360DEE74D4B00221A604A
:1017B800FFF7ECFD0546494B1B6813F0020FD3D029
:1017C800FFF7E4FD401B0228F5D903201DE1454B36
:1017D80000221A60FFF7DAFD0546404B5B6F13F0F5
:1017E800020F06D0FFF7D2FD401B0228F5D90320CF
:1017F8000BE1236813F0040F79D0384B1B6C13F0FE
:10180800805F33D100230193344B1A6C42F080522D
:101818001A641B6C03F080530193019B0125324B22
:101828001B6813F4807F23D0A368012B34D0052BC9
:1018380038D02A4B1A6F22F001021A671A6F22F069
:1018480004021A67A368002B36D0FFF79FFD0646EF
:10185800224B1B6F13F0020F48D1FFF797FD801B37
:1018680041F288339842F3D90320CEE00025D6E729
:101878001D4A136843F480731360FFF787FD06461B
:10188800194B1B6813F4807FCED1FFF77FFD801BB7
:101898000228F5D90320B8E0104A136F43F001037A
:1018A8001367CFE70D4B1A6F42F004021A671A6FDD
:1018B80042F001021A67C5E7FFF768FD0646074BC5
:1018C8001B6F13F0020F11D0FFF760FD801B41F270
:1018D80088339842F3D9032097E000BF00380240CC
:1018E80000004742800E474200700040EDB9A369EE
:1018F800002B00F08980484A926802F00C02082AFE
:1019080051D0022B17D0454B00221A60FFF73EFD3D
:101918000446414B1B6813F0007F42D0FFF736FDA9
:10192800001B0228F5D903206FE03B4A136C23F013
:1019380080531364DBE7394B00221A60FFF726FD5A
:101948000546354B1B6813F0007F06D0FFF71EFDD8
:10195800401B0228F5D9032057E0E369226A1343A4
:10196800626A43EA8213A26A5208013A43EA0243CE
:10197800E26A43EA0263284A5360284B01221A604C
:10198800FFF704FD0446244B1B6813F0007F06D1C3
:10199800FFF7FCFC001B0228F5D9032035E00020E6
:1019A80033E0002031E0012B31D01B4B5B6803F49E
:1019B8008001E269914201D0012026E003F03F0254
:1019C800216A8A4201D001201FE0616A47F6C0728D
:1019D8001A40B2EB811F01D0012016E003F4403118
:1019E800A26A5208013AB1EB024F01D001200CE083
:1019F80003F07063E26AB3EB026F0AD0012004E0DF
:101A080001207047012000E0002002B070BD0120D5
:101A1800FBE70020F9E700BF0038024060004742BA
:101A2800304B9B6803F00C03082B58D12DE9F04B81
:101A38002C4B5A6802F03F025B6813F4800F2BD0DE
:101A4800284B5B68C3F388131E4600275C010025FA
:101A5800E41A65EB0705A90141EA9461A001001B9E
:101A680061EB0501CB0043EA5073C400A01943EBB6
:101A780007018B0243EA905384022046194600234B
:101A8800FEF7C4FF174B5B68C3F3014301335B00E8
:101A9800B0FBF3F0BDE8F08B124B5B68C3F388131F
:101AA8001E4600275C010025E41A65EB0705A9011D
:101AB80041EA9461A001001B61EB0501CB0043EAF8
:101AC8005073C400A01943EB07018B0243EA9053FB
:101AD8008402204619460023FEF798FFD2E7024801
:101AE800704700BF003802400024F400002800F0CE
:101AF8009E8070B50446504B1B6803F007038B4269
:101B080009D2CBB24C4A1370136803F007038B4217
:101B180001D0012070BD236813F0020F17D013F015
:101B2800040F04D0454A936843F4E0539360236854
:101B380013F0080F04D0414A936843F4604393605C
:101B48003E4A936823F0F003A068034393600D4670
:101B5800236813F0010F32D06368012B21D09A1E3D
:101B6800012A25D9354A126812F0020F61D033498B
:101B78008A6822F0030213438B60FFF707FC0646CE
:101B88002E4B9B6803F00C036268B3EB820F16D0F0
:101B9800FFF7FCFB801B41F288339842F0D9032001
:101BA800B8E7264A126812F4003FE0D10120B1E7F5
:101BB800224A126812F0007FD9D10120AAE71E4BF1
:101BC8001B6803F00703AB4209D9EAB21A4B1A7033
:101BD8001B6803F00703AB4201D001209AE7236892
:101BE80013F0040F06D0154A936823F4E053E16814
:101BF8000B439360236813F0080F07D00F4A9368CC
:101C080023F46043216943EAC1039360FFF708FFA7
:101C18000A4B9B68C3F30313094AD35CD840094BAA
:101C28001860094B1868FFF767FB002072E701206E
:101C3800704701206EE700BF003C024000380240B8
:101C480054270008080000201000002070B4036A20
:101C580023F001030362036A4268846924F0730471
:101C68000D6845EA040623F002048B6823430D4DF2
:101C7800A84209D00B4DA8420DD0426086614A683F
:101C88004263036270BC704723F00803CC682343A7
:101C980023F00403EEE722F440724C6914438A6986
:101CA8002243EAE70000014030B4036A23F480735A
:101CB8000362036A4268C46924F073040D682C4304
:101CC80023F400738D6843EA05230F4DA84209D019
:101CD8000D4DA8420ED04260C4614A68C2630362D7
:101CE80030BC704723F40063CD6843EA052323F42E
:101CF8008063EDE722F440524D6942EA05128D698E
:101D080042EA0512E7E700BF0000014030B4036A69
:101D180023F480530362036A4468C26922F4E642EA
:101D28000D6842EA052223F400538D6843EA05331F
:101D3800074DA84206D04460C2614A680264036243
:101D480030BC704724F480444D6944EA8514F2E7B6
:101D58000000014010B4036A046A24F0010404621C
:101D6800846924F0F00444EA021223F00A030B43C6
:101D7800826103625DF8044B704710B4036A23F074
:101D8800100303628469036A24F4704444EA02324B
:101D980023F0A00343EA0113826103625DF8044B58
:101DA8007047836823F07003194341F0070181608D
:101DB8007047000090F83D30DBB2012B01D00120C4
:101DC8007047022380F83D300268D36843F001036E
:101DD800D3600368144A934218D0B3F1804F15D0EA
:101DE800A2F57C42934211D002F5806293420DD055
:101DF80002F58062934209D002F59A32934205D0E7
:101E08001A6842F001021A60002070479A6802F0CE
:101E18000702062A05D01A6842F001021A6000205B
:101E280070470020704700BF0000014070477047AE
:101E380070477047704710B5044603681A6912F076
:101E4800020F11D0DA6812F0020F0DD06FF0020203
:101E58001A610123037703689B6913F0030F70D09D
:101E6800FFF7E6FF0023237723681A6912F0040FAF
:101E780012D0DA6812F0040F0ED06FF004021A6163
:101E88000223237723689B6913F4407F5FD02046A1
:101E9800FFF7CEFF0023237723681A6912F0080F93
:101EA80012D0DA6812F0080F0ED06FF008021A612B
:101EB800042323772368DB6913F0030F4ED02046F1
:101EC800FFF7B6FF0023237723681A6912F0100F73
:101ED80012D0DA6812F0100F0ED06FF010021A61EB
:101EE800082323772368DB6913F4407F3DD020461D
:101EF800FFF79EFF0023237723681A6912F0010F6A
:101F080003D0DA6812F0010F36D123681A6912F08B
:101F1800800F03D0DA6812F0800F34D123681A6971
:101F280012F0400F03D0DA6812F0400F32D1236864
:101F38001A6912F0200F03D0DA6812F0200F30D19E
:101F480010BDFFF774FF2046FFF773FF8AE72046AE
:101F5800FFF76DFF2046FFF76CFF9BE72046FFF772
:101F680066FF2046FFF765FFACE72046FFF75FFFF7
:101F78002046FFF75EFFBDE76FF001021A612046B9
:101F8800FFF754FFC1E76FF080021A61204600F0A6
:101F980079FBC3E76FF040021A612046FFF74AFF5A
:101FA800C5E76FF020021A61204600F06AFBC7E718
:101FB8000368254A90420ED0B0F1804F0BD0A2F5AD
:101FC8007C42904207D002F58062904203D002F52D
:101FD8008062904203D123F070034A6813431A4A7F
:101FE80090421AD0B0F1804F17D0A2F57C429042AF
:101FF80013D002F5806290420FD002F580629042C1
:102008000BD002F59A32904207D002F580629042D6
:1020180003D002F58062904203D123F44073CA686A
:10202800134323F080034A69134303608B68C36238
:102038000B688362044B984202D0012343617047C6
:102048000B690363F9E700BF0000014038B310B51E
:10205800044690F83D30EBB1022384F83D30211D51
:102068002068FFF7A5FF012384F8463084F83E3046
:1020780084F83F3084F8403084F8413084F84230A6
:1020880084F8433084F8443084F8453084F83D308F
:10209800002010BD80F83C30FFF786F8DCE701200F
:1020A800704738B310B5044690F83D30EBB10223C1
:1020B80084F83D30211D2068FFF77AFF012384F85A
:1020C800463084F83E3084F83F3084F8403084F855
:1020D800413084F8423084F8433084F8443084F83E
:1020E800453084F83D30002010BD80F83C30FFF7C3
:1020F80043F8DCE701207047002853D0F8B50446C0
:102108000D4690F83D30002B47D0022384F83D302F
:10211800214651F8042B936823F4804323F00703E6
:1021280093602068FFF744FF21688A688E690F6A08
:102138002868104326F4407626F00306AA68AB699F
:1021480042EA0323334323F47C4323F0FC03EE6881
:10215800EA6946EA02261E432A6A13032A6943EA01
:102168000213334327F0AA076A686D6942EA051229
:102178003A43886021688B6123681A62012384F8D6
:10218800463084F83E3084F83F3084F8423084F892
:10219800433084F83D300020F8BD80F83C30FFF72C
:1021A80021F8B2E70120704730B4036A23F0100326
:1021B8000362036A4468826922F4E6420D6842EACF
:1021C800052223F020038D6843EA05130E4DA8422B
:1021D80009D00D4DA8420ED0446082614A688263DE
:1021E800036230BC704723F08003CD6843EA0513CF
:1021F80023F04003EDE724F440644D6944EA850484
:102208008D6944EA8504E7E70000014038B590F895
:102218003C30012B60D00D460446012380F83C3049
:102228000C2A1AD8DFE802F0071919191D1919190B
:102238003119191944000068FFF708FD22689369ED
:1022480043F0080393612268936923F004039361C0
:102258002268936929690B439361002084F83C0044
:1022680038BD0068FFF7A0FF2268936943F4006354
:1022780093612268936923F4806393612268936968
:10228800296943EA01239361E7E70068FFF70CFD3A
:102298002268D36943F00803D3612268D36923F025
:1022A8000403D3612268D36929690B43D361D4E756
:1022B8000068FFF72BFD2268D36943F40063D361FC
:1022C8002268D36923F48063D3612268D3692969BA
:1022D80043EA0123D361C0E70220C1E710B4846850
:1022E80024F47F4442EA03230B43234383605DF8CD
:1022F800044B704790F83C30012B66D010B504466B
:10230800012380F83C30022380F83D30026893684E
:1023180023F47F4323F0770393600B68402B4AD064
:1023280013D9602B3DD01ED9702B28D0B3F5005F90
:1023380030D1CB684A6889680068FFF7CFFF226808
:10234800936843F48043936024E0102B06D004D9AB
:10235800202B03D0302B01D01CE0DBB919462068B4
:10236800FFF71FFD16E0502B14D1CA6849680068B2
:10237800FFF7F0FC50212068FFF713FD0AE0CB6857
:102388004A6889680068FFF7A9FF2268936843F0E4
:1023980077039360012384F83D30002084F83C00E3
:1023A80010BDCA6849680068FFF7E7FC602120682B
:1023B800FFF7F7FCEEE7CA6849680068FFF7CAFC50
:1023C80040212068FFF7EDFCE4E70220704710B4D5
:1023D80001F01F01012303FA01F4036A23EA04034D
:1023E8000362036A8A40134303625DF8044B704733
:1023F8000A46002935D190F83E30DBB213F1FF339D
:1024080018BF0123002B68D110B5002A45D102233B
:1024180080F83E301146044601220068FFF7D7FFD6
:102428002368304A934248D023682E4A934249D0C1
:10243800B3F1804F46D0A2F57C42934242D002F5D8
:10244800806293423ED002F5806293423AD002F510
:102458009A32934236D01A6842F001021A6000207C
:102468003AE0042909D008290FD090F84130DBB2AE
:1024780013F1FF3318BF0123C4E790F83F30DBB2F4
:1024880013F1FF3318BF0123BCE790F84030DBB2EB
:1024980013F1FF3318BF0123B4E7042A05D0082A33
:1024A80007D0022380F84130B4E7022380F83F3098
:1024B800B0E7022380F84030ACE75A6C42F400429F
:1024C8005A64B1E79A6802F00702062A07D01A6828
:1024D80042F001021A60002010BD01207047002060
:1024E800FAE700BF0000014070B590F83E30DBB25B
:1024F80090F83F2090F84240E4B290F843500E46DE
:10250800D9B9012B01D0012070BD012C01D00120C7
:10251800FAE7022380F83E3080F842300446C6B31A
:10252800042E42D0012200210068FFF750FF01224B
:1025380004212068FFF74BFF30E0D2B2EDB2042946
:1025480003D0012B0FD00120DEE7012A01D00120A2
:10255800DAE7012D01D00120D6E7022380F83F30C9
:1025680080F84330DAE7012A01D00120CCE7012CBA
:1025780001D00120C8E7012D01D00120C4E70223C2
:1025880080F83E3080F83F3080F8423080F84330A1
:10259800C4E7012200210068FFF719FF22681368C9
:1025A80043F0010313600020AEE701220421006814
:1025B800FFF70DFFF2E7000090F83C30012B33D015
:1025C80030B4012380F83C30022380F83D300368A2
:1025D8005C689D6824F070040A6822435A600368A6
:1025E800124A934212D0B3F1804F0FD0A2F57C4229
:1025F80093420BD002F58062934207D002F58062C5
:10260800934203D002F59A32934204D125F0800513
:102618004A6815439D60012380F83D30002380F807
:102628003C30184630BC704702207047000001401B
:1026380090F83C30012B22D0012380F83C30CB6845
:1026480023F440738A68134323F480634A6813436E
:1026580023F400630A68134323F480530A6913437D
:1026680023F400534A69134323F48043CA6913438C
:1026780002685364002380F83C30184670470220F3
:102688007047704770470000DFF834D00D480E4996
:102698000E4A002302E0D458C4500433C4188C42B4
:1026A800F9D30B4A0B4C002301E013600432A24219
:1026B800FBD3FEF717FE00F011F8FEF775FC704724
:1026C8000000022000000020140000207C270008E1
:1026D8001400002020010020FEE7000070B50D4E18
:1026E8000D4CA41BA4100025A54209D10B4E0C4C7F
:1026F80000F020F8A41BA4100025A54205D170BD48
:1027080056F8253098470135EEE756F825309847B2
:102718000135F2E7742700087427000874270008B9
:102728007827000802440346934200D1704703F813
:10273800011BF9E7F8B500BFF8BC08BC9E46704716
:0C274800F8B500BFF8BC08BC9E46704706
:10275400000000000000000001020304060708094D
:08276400000000000102030463
:08276C00D8E2FF7F010000002C
:04277400BD0100089B
:0427780099010008BB
:10277C00000070410000803F0024F40001000000C4
:04278C001000000039
:040000050800269138
:00000001FF
